:020000040000FA
:1000000018F09FE518F09FE518F09FE518F09FE5C0
:1000100018F09FE50000A0E1F0FF1FE5D8F09FE594
:1000200054000000400000004400000048000000B0
:100030004C000000000000005000000030030000F1
:10004000FEFFFFEAFEFFFFEAFEFFFFEAFEFFFFEA18
:10005000FEFFFFEAA4009FE5AA10A0E35520A0E35D
:100060002430A0E3043080E50130A0E3003080E5D7
:100070000C1080E50C2080E5083090E5013B13E290
:10008000FCFFFF0A0330A0E3003080E50C1080E5A0
:100090000C2080E568009FE50410A0E3041080E5D3
:1000A0000210A0E3001080E558009FE5DBF021E39B
:1000B00000D0A0E1000040E2D7F021E300D0A0E1B1
:1000C000000040E2D1F021E300D0A0E1000040E2D6
:1000D000D2F021E300D0A0E1800040E2D3F021E3A0
:1000E00000D0A0E1080040E210F021E300D0A0E140
:1000F00001AB4DE210009FE510FF2FE1300300003F
:1001000080C01FE000C01FE0F805004010010000A3
:10011000000000EB370000EB2C008FE2000C90E8B1
:1001200000A08AE000B08BE001704AE20B005AE1C7
:100130000000001A2F0000EB0F00BAE818E04FE2B1
:10014000010013E303F0471013FF2FE1E412000056
:1001500004130000102052E27800B0287800A12893
:10016000FBFFFF8A822EB0E13000B0283000A128CA
:1001700000409045004081451EFF2FE10030B0E374
:100180000040B0E30050B0E30060B0E3102052E262
:100190007800A128FCFFFF8A822EB0E13000A12860
:1001A000003081451EFF2FE17847C046750051E3BE
:1001B000DB00000A0000B0E31EFF2FE101C08FE268
:1001C0001CFF2FE11FB50098019900F0B0FE00F070
:1001D0004FFB059886460FBC009C02B0704700009C
:1001E00001C08FE21CFF2FE130B4754600F0AEFB7A
:1001F000AE4630BC704700000A0200EB0210A0E1DE
:10020000EDFFFFEB1CC09FE50FC08CE001001CE37D
:100210000DE08F120FE0A0011CFF2FE101C08FE263
:100220001CFF2FE100F01CFE900100007847C04643
:1002300003002DE9E9FFFFEB0300BDE80E0400EB2E
:100240000C009FE50C109FE504209FE508309FE51A
:100250001EFF2FE17001004070050040700100405A
:100260000010A0E3060000EA0020A0E3000000EA7E
:10027000012082E2D0319FE5030052E1FBFFFF3A0B
:10028000011081E2000051E1F6FFFF3A1EFF2FE16D
:10029000B8019FE5000090E5030080E3AC119FE505
:1002A000000081E58300A0E30015C1E10C00C1E579
:1002B0000000A0E30400C1E54E00A0E30000C1E59A
:1002C0000300A0E30C00C1E51EFF2FE17C019FE5C8
:1002D000040090E5010480E370119FE5040081E5CE
:1002E0006C019FE5000090E50102C0E360119FE50D
:1002F000000081E50000A0E3F40F10E50107C0E372
:100300000010A0E3F40F01E50000A0E3F00F10E5FA
:10031000010780E3F00F01E50100A0E334119FE540
:10032000700081E50500A0E3280081E51EFF2FE1B4
:1003300003002DE91C019FE5000090E5100010E38B
:100340000E00000A10019FE5000090E5000050E358
:100350000400001AFC009FE52C0090E5F8109FE5D2
:10036000000081E5050000EAE8009FE52C0090E52B
:10037000E8109FE5000081E50000A0E3D00F00E554
:100380000300BDE804F05EE20200A0E3C4109FE5B4
:10039000040081E50100A0E3040081E51EFF2FE1D8
:1003A0000000A0E3B8109FE58000C1E5AA00A0E32B
:1003B0008C00C1E55500A0E38C00C1E50100A0E37D
:1003C0000001C1E5B1FFFFEBBFFFFFEBEDFFFFEB6E
:1003D0001C0000EA80009FE5000090E5000050E36B
:1003E0001600000A74009FE5000090E5000050E34D
:1003F0001200000A64009FE5000090E558109FE598
:10040000001091E5014040E0FA1FA0E3940100E0F4
:1004100050109FE5EF0300EB0050A0E10510A0E1B4
:1004200044008FE2170000EB0000A0E328109FE5D6
:10043000000081E524109FE5000081E50000A0E1B7
:100440003C009FE585FFFFEBE1FFFFEAFB040000B6
:1004500000C002E000C0FF3F004000E0000000409C
:100460000400004000C01FE0001BB70046495120B7
:100470004C6174656E63793A2025752075730D0A99
:1004800000000000A086010001C08FE21CFF2FE1E8
:100490000FB4054910B503AA029800F09FF910BCEB
:1004A00008BC04B01847000068000040F8B50E0012
:1004B000040000202062E168200000F09FFF002877
:1004C0002BD0252802D06268A16821E0E1680027CE
:1004D000200000F093FF05001FD0280041381928A4
:1004E00002D80127FF0220353200290020002760B2
:1004F000FFF75AFE002808D0012804D0F61DF608A0
:10050000F6000836D7E7361DD5E76268A1682800EF
:1005100000F075FF206A401CCCE7206AF8BC08BCDC
:100520001847000001C08FE21CFF2FE1F7B500253E
:1005300075291068009915A611D0C046C04600283C
:1005400002DA404212A608E0009909688A0701D53C
:1005500010A602E0490704D50FA6012501E0C04618
:10056000C046009F0024243704E000F04DF93031EC
:100570003955641C0028F8D100982B003200210066
:1005800000F0CFF8FEBC08BC1847000000000000D7
:100590002D0000002B00000020000000013090E141
:1005A0002100004A0020B0E3A03071E01A00003AB8
:1005B000203271E00F00003A203471E00100003A6F
:1005C00000C0A0E3200000EAA03371E081034020D6
:1005D0000220B2E0203371E0010340200220B2E0AB
:1005E000A03271E0810240200220B2E0203271E0AE
:1005F000010240200220B2E0A03171E081014020E0
:100600000220B2E0203171E0010140200220B2E07E
:10061000A03071E0810040200220B2E0011050E0E3
:100620000010A0310200A2E01EFF2FE1022111E222
:100630000010614240C032E000006022203271E0D0
:100640001D00003A203471E00F00003A0113A0E1D0
:10065000203471E03F2382E30B00003A0113A0E154
:10066000203471E03F2682E30700003A0113A0E145
:10067000203471E03F2982E30113A0213F2C822323
:10068000003071E21D00002A2113A021A03371E087
:10069000810340200220B2E0203371E001034020BA
:1006A0000220B2E0A03271E0810240200220B2E0DC
:1006B000203271E0010240200220B2E0A03171E05E
:1006C000810140200220B2E0203171E00101402090
:1006D0000220B2E0EBFFFF2AA03071E08100402051
:1006E0000220B2E0011050E00010A0310200A2E0B0
:1006F000CCCFB0E100006042001061221EFF2FE16C
:10070000CCCFB0E10000604201402DE90000B0E331
:100710000000A0E10240BDE81EFF2FE170477047D6
:100720007047FFB5040081B024300D0000902168AF
:10073000880604D51022E0699143216000E0012081
:10074000A84201DD471B00E000270498A1697A193F
:100750001018081AA0612078C00602D42000C046F4
:10076000C046002609E00398A1686268805D00F039
:1007700046FE206A401C761C206204988642F2DB0A
:100780002078C0060BD52000C046C04607E062684E
:10079000A168302000F033FE206A401C206238003F
:1007A0007F1E0028F3DC08E00098A1686268405DC5
:1007B00000F025FE206A401C206228006D1E0028E3
:1007C000F2DC2000C046C0462078000604D5022096
:1007D00005B0F0BC08BC18470120F9E7094B70B51B
:1007E0000D007B4400F02DF80400280000F03CF8D8
:1007F000002804D00020C04370BC08BC184720006B
:10080000FAE700001B0C00007847C0460A1040E2DF
:10081000200140E0200280E0200480E0200880E009
:10082000A001A0E1002180E0821051E0010080528F
:100830000A1081421EFF2FE101694A1C02610878FB
:10084000704700B58FB002910021059105490193D1
:1008500079440391110004906846FFF727FE0FB01A
:1008600008BC1847E5FFFFFFC068802108407047BB
:1008700010B54548542100F001FB4448542100F0D4
:10088000FDFA4348542100F0F9FA42483E493F4BF3
:10089000424A0160404803603D4810605A1C0A65A6
:1008A000411C1965012101653E48374A3CA1784445
:1008B00000F036FA002804D13A4878440C3800F0A9
:1008C000D5FA3A48314A38A1784400F029FA00288C
:1008D00004D1364878440C3800F0C8FA34482C4A21
:1008E00031A1784400F01CFA002804D13048784443
:1008F0000C3800F0BBFA40232348DC002200002122
:1009000000F0E6F9002804D0264878445C3800F06E
:10091000ADFA1E4840232200002100F0D9F900283A
:1009200004D0224878445C3800F0A0FA184810231C
:100930002200002100F0CCF9002804D01C487844A3
:100940005C3800F093FA10BC08BC1847104870B52A
:10095000006D44080C48640000F05AFA0B4800F09F
:1009600057FA0B4800F054FA09E0206D45082000C2
:100970006D0000F04DFA200000F086F82C00002CED
:10098000F3D170BC08BC1847140000406800004058
:10099000BC000040080000400C0000401000004077
:1009A00072000000720B0000770000005C0B00007A
:1009B000460B00000EB56A4603C200F03DFC0290F3
:1009C00069460120ABDF03B008BC184708B569468B
:1009D00000900220ABDF01B0F6E71FB56C4607C4FC
:1009E00069460520ABDF04B010BC08BC18471FB532
:1009F0006C460FC469460620ABDFF4E708B56946CC
:100A000000900920ABDFE6E71CB56A4603C26946E1
:100A10000A20ABDF1CBC08BC1847704708B5694604
:100A200000900C20ABDFD6E70E50A0E1280100EBD0
:100A300005E0A0E10050B0E10D10A0E10A30A0E116
:100A40000700C0E300D0A0E160D08DE220402DE996
:100A5000FAFDFFEB2040BDE80060A0E30070A0E3DA
:100A60000080A0E300B0A0E30710C1E305C0A0E14F
:100A7000C009ACE8C009ACE8C009ACE8C009ACE802
:100A800001D0A0E11EFF2FE170B50400051F00F0AA
:100A900029FA0068002C1AD0446801E0200064683C
:100AA000002C01D0AC42F9D301680A18AA4204D143
:100AB0002A6889180500016000E04560286841192E
:100AC000A14207D16168696021684018286070BC44
:100AD00008BC18476C6070BC08BC1847F8B5050026
:100AE000C8680C000521C904884301218905084311
:100AF000E060800602D5200000F056FB7249E068F5
:100B00000140022903D0200000F0F4FABFE00521E3
:100B1000012249030140D20391420FD1C00306D5FF
:100B20006168E06A884200D80800606006E02069D9
:100B3000E06260606069FFF771FFA061A1682E0646
:100B40000022360E00290EDAE06883050BD4C94373
:100B5000A1600921226049030843E0606068411CEC
:100B600061600670AEE0E068012149030843E0607F
:100B7000002020602069002831D16069FFF73EFF26
:100B800001252700ED022437002816D0A089800512
:100B9000800F08D0E06900F0F9F90028206102D048
:100BA000E068284318E001202761E061E068032144
:100BB00009028843012189020DE0E06900F0E6F9AD
:100BC00000282061EFD0E0682843E0608105890FAC
:100BD00003D1FF2101310843E06020696060E268D1
:100BE0003A4F2569D00521D56168E06A884200D86E
:100BF0000800411B05D02200280000F085FA0028DB
:100C000045D1E068010204D5E56200206560A0607E
:100C100055E0691CE1626160E1693843491EA160E9
:100C2000E06030002E70F8BC08BC1847100201D5F7
:100C30003A4009E06068411C61600670E068384332
:100C40000A2EE06006D00022E16A6068814203D982
:100C50000B0002E00122F7E70300A7895B1B7F0579
:100C600004D4E7699F4201DD002A1ED0814200D8EA
:100C700001000F1A0020E5626560002BA06009DD0D
:100C800022001900280000F03FFA002802D00020BE
:100C9000C043C8E7002F08D0A069E5626560C01BAB
:100CA000A061E06810210843E060E068000209D517
:100CB0006168A069E562491B40186560A061012078
:100CC000C043B0E73000AEE7821000000000010032
:100CD00070B4C468A50713D0650211D4D51FF93DBF
:100CE0000AD0FF3D013D07D0FF3DFF3D023D07D14A
:100CF00001002431012306E0084E5D1EB54202D3F7
:100D0000012070BC70470161C36141600F2109027D
:100D10008C431443C4600020F3E70000FFFFFF0092
:100D2000F7B516000C00100000F072F82078611C76
:100D300061280AD0722802D077283BD102E0012531
:100D4000002404E00225042401E02F4D082402229F
:100D5000032301270878491C2B2806D0622807D0D6
:100D60002039C87F742807D008E01D431443F1E7F9
:100D7000042005433C43EDE7102004430098210084
:100D8000FFF718FE411C15D000213161716001216F
:100D9000F5604902F1617061200704D5022200214B
:100DA000300000F02BF9306D384330653000FEBC68
:100DB00008BC18470020FAE7F8B50D00134C0600F0
:100DC000206DC10704D0410804D044086400F7E74F
:100DD000220010E0542000F0D9F8070012D0790862
:100DE000206D490001221143084320655421380039
:100DF00000F044F83A0029003000FFF791FFF8BCFA
:100E000008BC18470020FAE70280000014000040E8
:100E1000FEB504001030114F41C80190E568002074
:100E20000090A80707D0200000F096F93000FFF7E7
:100E3000CDFD002803DA3800FEBC08BC18472805A1
:100E400002D50198FFF720FE4C21200000F016F893
:100E5000206D4008400020650098EDE7FFFFFFFF90
:100E60000400C046C0462000FFF7E0F910B500F0CE
:100E7000C7F900F0BDF910BC08BC18477847C04658
:100E80000020A0E300402DE90230A0E102C0A0E173
:100E900002E0A0E1201051E20C50A0280C50A02844
:100EA00020105122FBFFFF2A011EB0E10C50A028A8
:100EB0000C00A0480040BDE80111B0E104208024EE
:100EC0001EFF2F01B220C040010111E30120C01418
:100ED0001EFF2FE100009FE51EFF2FE110010040E3
:100EE0001EFF2FE17847C04600009FE51EFF2FE15F
:100EF00018010040704770477047704738B50400CC
:100F00000A0069460020C046C046002805D00200FD
:100F10000099200000F0C3F9012038BC08BC184734
:100F200010B5012000F016FA10BC08BC1847F8B53F
:100F3000C046C04605000C0000201020C046060038
:100F4000A819A0420DD9694632000020C046C0460B
:100F5000070001D100F0FEF90098A04200D0050082
:100F6000C419FFF7BFFFF61D07000560F008C000B9
:100F70004619280000F08CF9B44204D03868A21B4E
:100F8000310000F08CF9F8BC08BC184770B50600B9
:100F9000FFF7A8FF056830000B30C408E400B44236
:100FA00003D870BC002008BC184768682A000028D5
:100FB0001AD00168A14213D30B00210008318B42E3
:100FC00008D3436801194B6003681B1B0B60516019
:100FD000046001E04168516070BC001D08BC184706
:100FE000020040680028E4D121002800FFF786FFB6
:100FF0000028DAD170BC08BC18470000F8B504001E
:101000004769007B16000D00800732D03800FFF7DB
:10101000F5FC00282DD132001026002A27D0012A05
:1010200002D0022A25D104E0200000F054F945192D
:101030001DE03800FFF7F2FCE16831430028E16071
:1010400006DA200000F056F80120F8BC08BC18476A
:10105000C9030BD56268E16A914200D81100A26908
:1010600089182269891A814200DD08002D18002D97
:1010700001DA0220E9E7E16A6068E268814206D2AB
:101080009103E06203D5012149048A433243A669F2
:10109000AE4211DCE16A814201D90B0000E003009D
:1010A0009F192369FF1AAF4206DD814201D90F0063
:1010B00000E007009F4206D1202002430020A060EC
:1010C000A56220600DE0AD1BE669AE1B8142A66003
:1010D00000D90800C01A281A206058196060202022
:1010E0008243034802400020E26040342072ACE7B3
:1010F000BFCFD7FFC1688022114392039143C160E3
:101100000021816001607047F7B514000E00364879
:10111000D5685769054209D0A1693800FFF774FC0A
:10112000002811DB3048C0430540E56000992B00E2
:1011300032003800FFF751FC4200A1695208B21A90
:1011400089180028A16104D02000FFF7D3FF0020F8
:10115000C043FEBC08BC184770B504000569C06AEE
:101160006168884200D80800E1680522D2049143F2
:10117000E160C90316D5A8420BD0411B220028000C
:10118000FFF7C2FF002804D00020C04370BC08BC99
:101190001847E56200206560A060E068012109044D
:1011A0008843E0600020F1E710B50400C06820210A
:1011B0008843E060A16AA06988420ED02000FFF752
:1011C000CBFFE06803210903884310210843E06056
:1011D000A06AA0612069E06260600449E06808409C
:1011E000E06010BC08BC184710000200BFBFFFFF42
:1011F00010B5002801D000F045F810BC08BC184715
:10120000010010B503A000F089F810BC012008BC53
:101210001847000053494752545245443A205265FA
:101220006469726563743A2063616E2774206F701D
:10123000656E3A200000000030B4441C03E00178E1
:10124000401C00290ED08107F9D10B4BDD0104C8E9
:10125000D11A91432940FAD0001B0A0604D0C01EBF
:1012600030BC7047001BFBE70A0401D0801EF7E783
:101270000902F5D0401EF3E70101010101C08FE230
:101280001CFF2FE101491820ABDFFEE7260002001A
:10129000002101604160806070471020704710B5E8
:1012A0000300406801E003004068002801D0884244
:1012B000F9D31868C3188B4206D0CB1CD808C000DD
:1012C000001D411A521A0100081D0A60FFF7DCFBDD
:1012D00010BC08BC184710B5C2680100900703D0C5
:1012E000900609D5886A0CE000F044F801210160FD
:1012F000881E10BC08BC18478B694868C0180B6969
:10130000C01A40310B7A002B02D0497A401AF0E71C
:101310001103EED50028ECDD401EEAE770B50C00A5
:1013200005000A2000E06D1C00F01CF8002D06D01E
:1013300028780028F7D102E0641C00F013F8002C94
:1013400002D020780028F7D10A2000F00BF870BCFA
:1013500008BC184710B500F015F8FFF749FF10BC9E
:1013600008BC184708B5694608700320ABDF01B018
:1013700008BC18477847C04600009FE51EFF2FE1D4
:101380001001004010B5012807D0002104A0FFF78C
:10139000C5FF10BC012008BC184709A1F6E70000F2
:1013A00053494752544D454D3A204F7574206F664E
:1013B0002068656170206D656D6F727900000000B6
:1013C0003A2048656170206D656D6F727920636F9A
:1013D00072727570746564000020B0E3203171E0B2
:1013E0008AFCFF3AA03271E07FFCFF3A203471E0C2
:1013F00074FCFF3A00C0A0E393FCFFEA08471047E3
:1014000010B58A68002A04DCFFF768FB10BC08BC32
:101410001847521E8A604A680006000E531C4B6033
:101420001070F3E73A7474003A7474003A747400FC
:10143000501400000000004014000000540100009F
:101440006414000014000040E40500007C0100006A
:10145000000000000000000000000000000000008C
:041460000000000088
:0400000500000110E6
:00000001FF
