:020000040000FA
:10000000000000EB250000EB2C008FE2000C90E8D4
:1000100000A08AE000B08BE001704AE20B005AE1D8
:100020000000001A1D0000EB0F00BAE818E04FE2D4
:10003000010013E303F0471013FF2FE1E401000078
:10004000F40100000030B0E30040B0E30050B0E342
:100050000060B0E3102052E27800A128FCFFFF8A84
:10006000822EB0E13000A128003081451EFF2FE133
:1000700001C08FE21CFF2FE11FB500F0C3F8059807
:1000800086460FBC009C02B07047000001C08FE2A2
:100090001CFF2FE130B47546AE4630BC70470000FF
:1000A000300000EB0210A0E1F0FFFFEB1CC09FE569
:1000B0000FC08CE001001CE30DE08F120FE0A001E7
:1000C0001CFF2FE101C08FE21CFF2FE100F07CF844
:1000D0006C0000007847C04603002DE9EAFFFFEB03
:1000E0000300BDE8400000EB0C009FE50C109FE50D
:1000F00004209FE508309FE51EFF2FE160000040CF
:1001000060040040600000400000A0E3000000EA3E
:10011000010080E23C109FE5010050E1FBFFFF3A47
:100120001EFF2FE11000A0E32C109FE5080081E5E1
:10013000070000EA1000A0E31C109FE5000081E525
:10014000F0FFFFEB0000A0E30C109FE5000081E54D
:10015000ECFFFFEBF6FFFFEA204E0000008002E01C
:1001600070477047704700000E50A0E1180000EB88
:1001700005E0A0E10050B0E10D10A0E10A30A0E1DF
:100180000700C0E300D0A0E160D08DE220402DE95F
:10019000D4FFFFEB2040BDE80060A0E30070A0E3C7
:1001A0000080A0E300B0A0E30710C1E305C0A0E118
:1001B000C009ACE8C009ACE8C009ACE8C009ACE8CB
:1001C00001D0A0E11EFF2FE10400C046C046200080
:1001D000FFF780FF00009FE51EFF2FE100000040B9
:1001E00000009FE51EFF2FE10400004001C08FE2E8
:1001F0001CFF2FE101491820ABDFFEE726000200BB
:100200001EFF2FE17847C04610402DE9F3FFFFEBBA
:100210000010A0E3001080E51040BDE81EFF2FE1B4
:100220003002000000000040E8040000440000002C
:0400000500000000F7
:00000001FF
